8=FIX.4.2|9=65|35=A|49=SERVER|56=CLIENT|34=177|52=20090107-18:15:16|98=0|108=30|10=062|8=FIX.4.2|9=65|35=A|49=SERVER|56=CLIENT|34=177|52=20090107-18:15:16|98=0|108=30|10=062|
